:100000000C94F8000C9420010C9420010C94200115
:100010000C9420010C9420010C9420010C942001DC
:100020000C9420010C9420010C9420010C942001CC
:100030000C9420010C9420010C9420010C942001BC
:100040000C9403080C9420010C9473080C944D0834
:100050000C9420010C9420010C9420010C9420019C
:100060000C94A5080C942001036EDB363D9A9999F7
:10007000993DABAAAA2A3E000000803F084AD73B20
:100080003BCE016E84BCBFFDC12F3D6C74319ABD67
:1000900056833DDA3D00C77F11BED9E4BB4C3E918B
:1000A0006BAAAABE000000803F072C7AA5BA6CC5D7
:1000B00090DA3B9365FC8BBC53F810FD3C56928361
:1000C0004DBD879D3AB63DCBC9BF5BBE73DA0FC944
:1000D0003F05A84CCDB2D44EB93836A9020C50B960
:1000E000918688083CA6AAAA2ABE000000803F0686
:1000F00064EC1B3C04BC163E3BE5B93CC93C37C232
:100100009E5A3D660498083EEA69AAAA3E0000008D
:10011000803F07634236B79BD8A71A39685618AE96
:10012000BAAB558C1D3CB7CC5763BD6DEDFD753E2C
:10013000F6177231BF000000803F08000000BE9239
:100140002449123EABAAAA2ABECDCCCC4C3E00001C
:100150000080BEABAAAAAA3E00000000BF000000BB
:10016000803F0000000000084178D3BB4387D113D3
:100170003D190E3CC3BD4282AD2B3E68EC8276BE7B
:10018000D98FE1A93E4C80EFFFBE01C4FF7F3F0045
:100190000000000000000000240027002A000000EA
:1001A0000000250028002B0000000000230026008E
:1001B00029000404040404040404020202020202EA
:1001C000030303030303010204081020408001021B
:1001D000040810200102040810200000000800029A
:1001E0000100000304070000000000000000C40933
:1001F00011241FBECFEFD8E0DEBFCDBF23E0AAE5BC
:10020000B1E001C01D92A336B207E1F711E0A0E012
:10021000B1E0ECE4F3E302C005900D92AA35B1071A
:10022000D9F710E0C8EFD0E004C02197FE010E948A
:100230009E19C73FD107C9F70E94FD090C94A41964
:100240000C9400009091B9028091B8022FEF3FEF1B
:10025000981748F4E92FF0E0E856FD4F208130E090
:100260009F5F9093B902C90108959091B90280915E
:10027000B8022FEF3FEF981748F4E92FF0E0E85667
:10028000FD4F208130E09F5F9093B902C90108952E
:1002900091E09093740280939602109275021092EE
:1002A00097020895833081F028F4813099F08230EC
:1002B000A9F008958730A9F08830C9F08430B1F4EE
:1002C000809180008F7D03C0809180008F77809324
:1002D0008000089584B58F7784BD089584B58F7D9F
:1002E000FBCF8091B0008F778093B000089580910C
:1002F000B0008F7DF9CFCF93DF93282F30E0F90145
:10030000E652FE4F8491F901EA53FE4FD491F90170
:10031000EE54FE4FC491CC23A1F081110E945201F2
:10032000EC2FF0E0EE0FFF1FE855FE4FA591B491C2
:10033000EC91ED2381E090E009F480E0DF91CF9132
:10034000089580E090E0FACF1F93CF93DF93282F9A
:1003500030E0F901E652FE4F8491F901EA53FE4F75
:10036000D491F901EE54FE4FC491CC23A9F0162F7D
:1003700081110E945201EC2FF0E0EE0FFF1FE256B8
:10038000FE4FA591B4918FB7F894EC91111108C06C
:10039000D095DE23DC938FBFDF91CF911F9108951D
:1003A000DE2BF8CFCF93DF9390E0FC01EA53FE4FB2
:1003B00024918E549E4FFC0184918823D1F090E0CB
:1003C000880F991FFC01EC56FE4FA591B491FC01DA
:1003D000E256FE4FC591D49161110EC09FB7F894BB
:1003E0008C91E22FE0958E238C932881E223E88381
:1003F0009FBFDF91CF9108958FB7F894EC91E22BD6
:10040000EC938FBFF6CF3FB7F89480914002909164
:100410004102A0914202B091430226B5A89B05C0BB
:100420002F3F19F00196A11DB11D3FBFBA2FA92F73
:10043000982F8827BC01CD01620F711D811D911D70
:1004400042E0660F771F881F991F4A95D1F70895DC
:100450008F929F92AF92BF92CF92DF92EF92FF92D4
:100460004B015C010E9403026B017C010E940302AC
:100470006C197D098E099F09683E734081059105BD
:10048000A8F321E0821A9108A108B10888EEC80EED
:1004900083E0D81EE11CF11C81149104A104B10475
:1004A00029F7FF90EF90DF90CF90BF90AF909F9093
:1004B0008F9008958091B8029091B902891B990B91
:1004C000089508950895AF92BF92CF92DF92EF9270
:1004D000FF920F931F93CF93DF936C017B018B01EE
:1004E000040F151FEB015E01AE18BF08C017D1073E
:1004F00059F06991D601ED91FC910190F081E02DC8
:10050000C6010995892B79F7C501DF91CF911F911C
:100510000F91FF90EF90DF90CF90BF90AF90089534
:10052000FC01538D448D252F30E0842F90E0821BF9
:10053000930B541710F0CF96089501970895FC017E
:10054000918D828D981761F0A28DAE0FBF2FB11DD6
:100550005D968C91928D9F5F9F73928F90E008952E
:100560008FEF9FEF0895EF92FF920F931F93CF931A
:10057000DF937B018C01D0E0C0E02FB7F89480912D
:10058000440290914502A0914602B09147022FBFCC
:100590008093C2029093C302A093C402B093C50299
:1005A0008AEB92E00E949F0297FF2CC02FB7F8942D
:1005B0008091440290914502A0914602B091470279
:1005C0002FBF4091C2025091C3026091C40270914A
:1005D000C502841B950BA60BB70B4091BE02509130
:1005E000BF026091C0027091C10284179507A607EF
:1005F000B707B0F2CE01DF91CF911F910F91FF901D
:10060000EF9008958C329105A9F3F80181938F0141
:100610002196EC16FD0609F0B0CFECCFFC01918DD0
:10062000828D981731F0828DE80FF11D858D90E055
:1006300008958FEF9FEF0895FC01918D228D892FF2
:1006400090E0805C9F4F821B91098F7399270895DA
:100650008AEB92E00E941C0321E0892B09F420E040
:10066000822F089580E090E0892B29F00E942803D2
:1006700081110C9400000895FC01A48DA80FB92FDE
:10068000B11DA35ABF4F2C91848D90E001968F73BA
:100690009927848FA689B7892C93A089B1898C91D9
:1006A000837080648C93938D848D981306C0028828
:1006B000F389E02D80818F7D80830895EF92FF92F2
:1006C0000F931F93CF93DF93EC0181E0888F9B8D75
:1006D0008C8D98131AC0E889F989808185FF15C02F
:1006E0009FB7F894EE89FF896083E889F989808152
:1006F0008370806480839FBF81E090E0DF91CF9121
:100700001F910F91FF90EF900895F62E0B8D10E042
:100710000F5F1F4F0F731127E02E8C8D8E110CC0B1
:100720000FB607FCFACFE889F989808185FFF5CFFC
:10073000CE010E943C03F1CFEB8DEC0FFD2FF11D9C
:10074000E35AFF4FF0829FB7F8940B8FEA89FB8939
:1007500080818062CFCF682F8AEB92E00C945E0399
:10076000CF93DF93EC01888D8823B9F0AA89BB89E8
:10077000E889F9898C9185FD03C0808186FD0DC0D3
:100780000FB607FCF7CF8C9185FFF2CF808185FFF4
:10079000EDCFCE010E943C03E9CFDF91CF910895C8
:1007A00020917B01260F3327331F21323105ECF4D2
:1007B00020916E02FC0190E080E0243069F082E03C
:1007C0000895A0917B012191AC01455A5E4FA40F81
:1007D000B52FB11D2C930196861798F380917B015C
:1007E000680F60937B0180E0089581E00895109286
:1007F0006E0281E080936D021092480261E082E116
:100800000E94A40161E083E10E94A401E9EBF0E011
:1008100080818E7F808380818D7F808388E4809338
:10082000B80085E48093BC000895CF93DF9391E0F6
:1008300090935A018823B9F0C091B800D091BA00C2
:100840008091BC008A7B8093BC0060E082E10E94C2
:10085000A40160E083E10E94A4010E94F703D09309
:10086000BA00C093B800DF91CF9108958F929F9204
:10087000AF92BF92CF92DF92EF92FF920F931F93AE
:10088000CF93DF93D0919702D13208F0D7C0182FC1
:10089000C09196020E9403026B017C0180916E025E
:1008A00081116BC082E080936E0210936D028FEF16
:1008B00080936C0210926B02D0936A02A6E7B2E0BA
:1008C000EAE4F2E080E0D81391C0109249028091EE
:1008D0004902CC0FC82BC093490280914802813055
:1008E00009F088C0109248020E9403026B017C014B
:1008F000809149028093BB008091700290917102B7
:10090000A0917202B0917302892B8A2B8B2BA1F0DC
:100910000E940302009170021091710220917202F4
:10092000309173026C197D098E099F09061717070C
:100930002807390708F442C08091BC0083FDD8CF56
:1009400085EC8093BC000E9403026B017C018091C6
:100950006E02823009F450C080916C028F3F09F41E
:100960006FC080916C02803209F46CC080916C027F
:10097000803309F469C084E026C0809170029091B0
:100980007102A0917202B0917302892B8A2B8B2B7A
:1009900009F484CF0E94030280907002909071024B
:1009A000A0907202B09073026C197D098E099F09A4
:1009B00086169706A806B90608F070CF80916F02D8
:1009C0000E94150485E01092750210929702109211
:1009D0007402DF91CF911F910F91FF90EF90DF9004
:1009E000CF90BF90AF909F908F9008959D919193DD
:1009F0008F5F69CF85EEA5CF8091700290917102D3
:100A0000A0917202B0917302892B8A2B8B2B09F46F
:100A10009ECF0E94030200917002109171022091FA
:100A20007202309173026C197D098E099F090617B5
:100A300017072807390708F08ACFC0CF81E0C3CF56
:100A400080E0C1CF82E0BFCF83E0BDCF81E00C94D6
:100A500036040895E091B9028091B802E81730F4A5
:100A6000F0E0E856FD4F808190E008958FEF9FEF12
:100A70000895CF92DF92EF92FF920F931F93CF933F
:100A8000DF937C01CB018A0120917402222389F03B
:100A9000EB016B01C40ED51ECC15DD0569F0699123
:100AA000D701ED91FC910190F081E02DC7010995EE
:100AB000F3CF642F0E94D003C801DF91CF911F9123
:100AC0000F91FF90EF90DF90CF900895CF93DF9339
:100AD0001F92CDB7DEB76983209174022223F9F00B
:100AE00020919702203258F021E030E0FC0133835E
:100AF000228390E080E00F90DF91CF910895809164
:100B00007502E82FF0E0EA58FD4F998190838F5FDE
:100B1000809375028093970281E090E0ECCF61E0D2
:100B2000CE0101960E94D003F7CF682F87E593E0AE
:100B30000C94660590E080E008958F929F92AF92AA
:100B4000BF92CF92DF92EF92FF920F931F93CF93BA
:100B5000DF937C01D62F0E9403024B015C01809140
:100B60006E02811167C0CD2F81E080936E02809369
:100B70006D029FEF90936C0210926B029D0F909309
:100B80006A028093490280914902EE0CFF1C8E2973
:100B90008093490280914802813009F083C010920D
:100BA00048020E9403026B017C01809149028093FC
:100BB000BB008091700290917102A0917202B0917D
:100BC0007302892B8A2B8B2BA1F00E940302809049
:100BD000700290907102A0907202B09073026C1932
:100BE0007D098E099F0986169706A806B90608F49E
:100BF00042C08091BC0083FDD8CF85EC8093BC00BF
:100C00000E9403026B017C0180916E02813009F425
:100C10004BC080916B028D1710F4C0916B02EAE417
:100C2000F2E0A8E9B2E080E08C1751F191919D9338
:100C30008F5FFACF8091700290917102A091720241
:100C4000B0917302892B8A2B8B2B09F488CF0E94D9
:100C50000302009170021091710220917202309192
:100C60007302681979098A099B090617170728076B
:100C7000390708F074CF80916F020E941504C0E01C
:100C80001092B902C093B8028C2FDF91CF911F91BF
:100C90000F91FF90EF90DF90CF90BF90AF909F901B
:100CA0008F90089585EEAACF809170029091710285
:100CB000A0917202B0917302892B8A2B8B2B09F4BD
:100CC000A3CF0E9403028090700290907102A090C6
:100CD0007202B09073026C197D098E099F09861605
:100CE0009706A806B90608F08FCFC5CFFC01019082
:100CF0000020E9F73197AF01481B590BBC018AEB83
:100D000092E00C9463028F929F92AF92BF920F93E6
:100D10001F93CF93DF93CDB7DEB7A1970FB6F894AB
:100D2000DEBF0FBECDBF19A2423008F44AE08E01EB
:100D30000F5D1F4F842E912CB12CA12CA501940185
:100D40000E945519E62FB901CA01EA30F4F4E05DBA
:100D5000D801EE938D01232B242B252B79F790E0DE
:100D600080E0109719F0CD010E947606A1960FB68B
:100D7000F894DEBF0FBECDBFDF91CF911F910F91D1
:100D8000BF90AF909F908F900895E95CE1CFCF9294
:100D9000DF92EF92FF92CF93DF9397FF19C06B0121
:100DA0007C018DE20E94AB03EC0166277727CB0123
:100DB0006C197D098E099F094AE00E9483068C0FF9
:100DC0009D1FDF91CF91FF90EF90DF90CF9008951E
:100DD0004AE0DF91CF91FF90EF90DF90CF900C949D
:100DE00083060C9476064F925F926F927F928F9259
:100DF0009F92AF92BF92CF92DF92EF92FF920F93AA
:100E00001F93CF936B017C01742EAC019B010E9458
:100E10003318882399F086E291E0CF911F910F91CA
:100E2000FF90EF90DF90CF90BF90AF909F908F900A
:100E30007F906F905F904F900C947606460157011B
:100E4000E894B7F82FEF3FEF4FE75FE7C501B40134
:100E50000E94331881110DC02FEF3FEF4FE75FE77E
:100E6000C501B4010E94231418161CF48AE291E013
:100E7000D4CF2FEF3FEF4FE75FE4C701B6010E94E9
:100E80005F1718161CF48EE291E0C7CF2FEF3FEFEB
:100E90004FE75FECC701B6010E94231487FDF3CF33
:100EA00020E030E0A901C701B6010E94231410E040
:100EB00000E087FF08C08DE20E94AB038C01F7FAC7
:100EC000F094F7F8F094C0E060E070E080E09FE319
:100ED0007C1641F020E030E040E251E40E941D1613
:100EE000CF5FF6CFA70196010E9462152B013C014E
:100EF0000E9496164B015C014AE00E9483067C0129
:100F0000E00EF11ECC23B1F1C501B4010E942814FA
:100F10009B01AC01C301B2010E9461154B015C0150
:100F20008EE20E94AB03E80EF91EC15018F120E0DA
:100F300030E040E251E4C501B4010E9489142B0164
:100F40003C010E9496164B01B12CA12C4AE0C50130
:100F5000B4010E948306E80EF91EC501B4010E9487
:100F600028149B01AC01C301B2010E9461154B0121
:100F70005C01DBCFC701CF911F910F91FF90EF90E4
:100F8000DF90CF90BF90AF909F908F907F906F90A9
:100F90005F904F90089585ED8093BC008091700222
:100FA00090917102A0917202B09173020796A11DF7
:100FB000B11D23E0B695A795979587952A95D1F70A
:100FC0002091BC0024FD03C010926E020895409150
:100FD0007002509171026091720270917302452B00
:100FE000462B472B69F30097A105B10541F02AE292
:100FF0002A95F1F700C00197A109B109E1CF8091CD
:101000006F020C9415041F920F920FB60F921124C9
:101010002F933F938F939F93AF93BF9380914402FD
:1010200090914502A0914602B091470230913F0253
:1010300023E0230F2D3758F50196A11DB11D2093F4
:101040003F028093440290934502A0934602B093DE
:1010500047028091400290914102A0914202B091DA
:1010600043020196A11DB11D80934002909341025D
:10107000A0934202B0934302BF91AF919F918F9191
:101080003F912F910F900FBE0F901F90189526E85B
:10109000230F0296A11DB11DD2CF1F920F920FB642
:1010A0000F9211242F933F934F935F936F937F93EE
:1010B0008F939F93AF93BF93EF93FF938AEB92E04D
:1010C0000E943C03FF91EF91BF91AF919F918F914F
:1010D0007F916F915F914F913F912F910F900FBE34
:1010E0000F901F9018951F920F920FB60F92112418
:1010F0002F938F939F93EF93FF93E091CA02F09108
:10110000CB028081E091D002F091D10282FD1BC020
:1011100090818091D3028F5F8F732091D4028217C8
:1011200041F0E091D302F0E0E654FD4F958F8093BB
:10113000D302FF91EF919F918F912F910F900FBE4E
:101140000F901F9018958081F4CF1F920F920FB6C9
:101150000F9211242F933F934F935F936F937F933D
:101160008F939F93AF93BF93EF93FF938091B900B9
:10117000887F803609F44AC0F0F5883209F4A7C0A8
:1011800018F5803109F49BC0B8F4882309F4F9C03C
:10119000883009F494C0FF91EF91BF91AF919F9176
:1011A0008F917F916F915F914F913F912F910F9010
:1011B0000FBE0F901F901895883109F488C08032B7
:1011C00051F780936C0214C0803409F49DC040F440
:1011D0008033B9F38833F9F680936C0285ECB0C0A4
:1011E000803509F485C0883509F496C0883499F6AD
:1011F0000E94CB07D0CF883909F48CC038F58837E6
:1012000029F050F4883611F0803729F683E0809376
:101210006E0210929D0157C0883809F47BC0803956
:1012200019F0803809F0B7CF80919D01803208F025
:1012300071C0E0919D0181E08E0F80939D018091AE
:10124000BB00F0E0E358FE4F80833DC0803B39F0A7
:10125000E0F4803A09F479C0883A09F09CCF84E040
:1012600080936E0210927C0110927B01E091A001AC
:10127000F091A101099580917B0181110FC081E05E
:1012800080937B0110925B0109C0803C09F4A6CFDA
:10129000883C09F4A3CF883B09F07DCFE0917C0125
:1012A00081E08E0F80937C01F0E0E55AFE4F808153
:1012B0008093BB0090917C0180917B0129C080913B
:1012C00049028093BB0085EC8093BC0064CF909171
:1012D0006B0280916A02981758F5E0916B0281E0E9
:1012E0008E0F80936B02F0E0E65BFD4F8081E9CFCB
:1012F000E0916B0281E08E0F80936B028091BB00C6
:10130000F0E0E65BFD4F808390916B0280916A0272
:101310009817C8F285E8D8CFE0916B0281E08E0F74
:1013200080936B028091BB00F0E0E65BFD4F808311
:1013300080916D0281115CCF81E08093480284EA44
:101340008093BC0010926E0226CF85EC8093BC0087
:1013500010926E0280919D01803230F4E0919D01E7
:10136000F0E0E358FE4F108260919D0170E0E09143
:101370009E01F0919F018DE791E0099510929D01EA
:101380000ACF10926C0234CFEAEBF2E013821282A1
:1013900088EE93E0A0E0B0E084839583A683B783D2
:1013A00026E031E03183208325EC30E03587248747
:1013B00024EC30E03787268720EC30E0318B208B1F
:1013C00021EC30E0338B228B22EC30E0358B248B08
:1013D00026EC30E0378B268B118E128E138E148EF6
:1013E000E7E5F3E01382128284839583A683B783B3
:1013F00088E191E0918380830895CF93DF93CDB707
:10140000DEB7C056D1090FB6F894DEBF0FBECDBF10
:10141000789484B5826084BD84B5816084BD85B5CF
:10142000826085BD85B5816085BD80916E008160DB
:1014300080936E0010928100809181008260809381
:101440008100809181008160809381008091800083
:101450008160809380008091B10084608093B100AE
:101460008091B00081608093B00080917A008460A8
:1014700080937A0080917A00826080937A008091D4
:101480007A00816080937A0080917A0080688093EE
:101490007A001092C100E091CA02F091CB0282E082
:1014A0008083E091C602F091C7021082E091C802E9
:1014B000F091C90280E180831092D202E091CE02C5
:1014C000F091CF0286E08083E091CC02F091CD02D2
:1014D000808180618083E091CC02F091CD02808197
:1014E00088608083E091CC02F091CD028081806899
:1014F0008083E091CC02F091CD0280818F7D80834A
:101500001092B9021092B8021092750210929702CE
:101510000E94F70381E692E09093A1018093A001DD
:1015200082E692E090939F0180939E011092AC011D
:1015300060E085E00E94D20161E085E00E94A401A4
:101540000E94F7038CE08093B80088E60E9448016F
:1015500089E190E00E9495058FE190E00E94950559
:1015600090E080E00E94950590E080E00E94950563
:1015700090E080E00E94950581E00E94360488E6B4
:101580000E9448018BE690E00E94950581E090E082
:101590000E94950581E00E94360420E030E048EC8E
:1015A00052E460912F02709130028091310290914B
:1015B00032020E941D1660932F02709330028093B6
:1015C00031029093320220E030E048EC52E4609126
:1015D0002702709128028091290290912A020E948C
:1015E0001D1660932702709328028093290290931E
:1015F0002A0220E030E048EC52E460911F02709132
:10160000200280912102909122020E941D166B01FE
:101610007C0120E030E048EC52E4609117027091C8
:1016200018028091190290911A020E941D1660936F
:101630001702709318028093190290931A0220E007
:1016400030E048EC52E460911302709114028091F2
:101650001502909116020E941D166093130270935A
:101660001402809315029093160220E030E048ECBB
:1016700052E460910B0270910C0280910D029091E6
:101680000E020E941D1660930B0270930C02809351
:101690000D0290930E0220E030E048EC52E460919D
:1016A00003027091040280910502909106020E944B
:1016B0001D166093030270930402809305029093B9
:1016C000060220E030E040E85FE3C701B6010E9477
:1016D000611560931F027093200280932102909302
:1016E00022028E010F5F1F4F1801085F1F4F1AA7BC
:1016F00009A7085F1F4F1CA70BA7085F1F4F1EA756
:101700000DA78101005E1F4FA1961FAF0EAFA197DD
:1017100087E70E9448018AEA90E00E9495050E94AE
:10172000260566E170E087E790E00E949D058091C4
:10173000B8029091B902891B990B469709F0C2C073
:101740000E9435018C010E943501012E000C220BF4
:10175000330B322F212F102F0027082B192B10931A
:10176000A9010093A8010E9435018C010E94350156
:10177000012E000C220B330B322F212F102F0027AC
:10178000082B192B10930101009300010E943501D1
:101790008C010E943501012E000C220B330B322FDD
:1017A000212F102F0027082B192B1093A70100932E
:1017B000A6010E9435018C010E943501012E000C0A
:1017C000220B330B322F212F102F0027082B192B20
:1017D0001093A3010093A2010E9435018C010E9485
:1017E0003501012E000C220B330B322F212F102F2D
:1017F0000027082B192B1093B2010093B1010E940E
:1018000035018C010E943501012E000C220B330B97
:10181000322F212F102F0027082B192B1093B401E2
:101820000093B3010E9435018C010E943501012E05
:10183000000C220B330B322F212F102F0027082BE7
:10184000192B1093A5010093A4010E9435018C016E
:101850000E943501012E000C220B330B322F212F59
:10186000102F0027082B192B1093AB010093AA010E
:101870000E9435010E9435010E9435018C010E94B1
:101880003501012E000C220B330B322F212F102F8C
:101890000027082B192B1093B0010093AF010E9471
:1018A00035018C010E943501012E000C220B330BF7
:1018B000322F212F102F0027082B192B1093AE0148
:1018C0000093AD0187E70E94480184EF90E00E94F9
:1018D00095058EE290E00E9495050E9426058BE416
:1018E00096E40197F1F787E70E94480186EF90E0C0
:1018F0000E9495058EE290E00E9495050E942605C3
:1019000062E070E087E790E00E949D058091B80258
:101910009091B902891B990B029709F046C50E9464
:1019200035018C010E943501012E000C220B330B76
:10193000522F412F302F2227092E000CAA0BBB0B50
:10194000822B932BA42BB52B2091B3013091B401A2
:101950007C018D01E21AF30A01091109A80197011E
:10196000A091B101B091B2010E9447150E942A14C2
:1019700020E030E040E058E30E9489140E948F1676
:101980002B013C016091AF017091B001072E000C5A
:10199000880B990B0E942A1420E030E040E055E4C7
:1019A0000E9489144B015C016091AD017091AE0100
:1019B000072E000C880B990B640D751D861D971D55
:1019C0000E942A149B01AC01C501B4010E941D169E
:1019D0000E948F16460E571E681E791EC301B20163
:1019E000685F7F4F8F4F9F4F0E942A1420E030E0A6
:1019F00040E85DE30E94891420E030E040E251E4D9
:101A00000E941D160E948F1660933B0270933C0249
:101A100080933D0290933E0287E70E94480184EF45
:101A200090E00E9495051091AC01812E012E000CD2
:101A30009908C40106E0880F991F0A95E1F7C4963A
:101A40000E9495050E942605113009F4C0C40CF0CF
:101A5000B0C48BE496E4112309F4BBC487E70E9469
:101A6000480186EF90E00E9495050E94260563E0FC
:101A700070E087E790E00E949D058091B802909108
:101A8000B902891B990B039709F0A9C40E9435017B
:101A90007C010E9435015C010E9435019701FF0C19
:101AA000440B550B542F432F322F22270B2C000CA5
:101AB000CC08DD082A293B294C295D29542F432FC6
:101AC000322F2227092E000CAA0BBB0B822B932B43
:101AD000A42BB52B28E030E028193909AC01BD0151
:101AE00004C075956795579547952A95D2F74FA7E6
:101AF00058AB69AB7AAB7301620150EAC51A5FE07B
:101B0000D50AE108F108A7019601C701B6010E94B4
:101B100045190E942A1420E030E040E859E30E9471
:101B200089142B013C01A091A601B091A701A70146
:101B300096010E9496190E942A1420E030E040E0AD
:101B400059E30E9489140E948F164B015C01609139
:101B5000A4017091A501072E000C880B990B0E941F
:101B60002A14A30192010E94891420E030E040E889
:101B700057E30E9489140E948F16680D791D8A1DF3
:101B80009B1D6E5F7F4F8F4F9F4F0E942A1420E056
:101B900030E040E85EE30E9489140E948F169B01AA
:101BA000AC0130584F4F5F4FA091A201B091A301FB
:101BB0000E9447150E94281420E030E040E058E3DE
:101BC0000E9489140E9496164B015C016091AA0143
:101BD0007091AB01072E000C880B990B0E942A1400
:101BE000A30192010E94891420E030E040E05AE312
:101BF0000E9489140E948F162B013C01A0910001C4
:101C0000B0910101A70196010E9496190E942A1421
:101C100020E030E040E05AE30E9489140E948F16D1
:101C2000640D751D861D971D4090A8015090A90157
:101C3000440C551C440C551C052C000C66087708F8
:101C4000640D751D861D971D012E04C0660F771F3C
:101C5000881F991F0A94D2F76E5F7F4F8F4F9F4F57
:101C600024E030E040E050E00E9477196FA578A9A9
:101C700089A99AA9621B730B840B950B9B01AC017C
:101C800060E573EC80E090E004C0959587957795CA
:101C900067951A95D2F70E94451997FDA5C3660F5F
:101CA000771F881F991FA50194010E94551969018A
:101CB0007A01C701B6010E942A144B015C0120E0A1
:101CC00030E040E85BE30E9489149B01AC010E9474
:101CD00089140E948F169B01AC01AEEDBBE00E94FF
:101CE00047150E942A1420E030E040E857E30E94A4
:101CF00089142B013C01A3E4B3EEA70196010E94D5
:101D000099190E942A1420E030E040E857E30E942D
:101D100089140E948F166B017C01C301B2010E94DD
:101D20008F166C0D7D1D8E1D9F1D6153714F8F4F42
:101D30009F4F0E942A1420E030E040E85DE30E94BB
:101D40008914A50194010E9462150E948F16609368
:101D50003702709338028093390290933A022DEC47
:101D60003BE841E050E00E947719CA01B9010E94A6
:101D70002A142EEA3CED42E45EE30E946C179B01BC
:101D8000AC0160E070E080E89FE30E94611520E014
:101D90003AE24DE257E40E94891420E03AE24DE233
:101DA00057E40E94611520E030E040E151E40E94D8
:101DB00062150E948F1660933302709334028093F1
:101DC00035029093360282E391E00E94F106609121
:101DD0003B0270913C0280913D0290913E020E9434
:101DE000C70687E391E00E94F10660913702709187
:101DF00038028091390290913A020E94C70687E327
:101E000091E00E94F106609133027091340280915A
:101E10003502909136020E94C70689E391E00E9444
:101E2000760688E2D1011D928A95E9F761E085E0A6
:101E30000E94D20160E085E00E94A40162E170E0AE
:101E400080E090E00E94280261E085E00E94A40109
:101E500060E085E00E94D2018BE990E00197F1F704
:101E600085E00E947B01019709F0C9C28CE391E0F3
:101E70000E94F1060E9403026B966CAF7DAF8EAF9D
:101E80009FAF6B9788E60E9448018BE390E00E9429
:101E9000950580E00E9436046EE070E088E690E0F0
:101EA0000E949D058091B8029091B902891B990BFF
:101EB0000E970CF442C10E943501182F0E94350183
:101EC00025961FAF259724961FAE24972596EEAC36
:101ED000FFAC25978E299F29BC01990F880B990B80
:101EE0000E942A1420E030E040E858E30E94891460
:101EF00020912F02309130024091310250913202F4
:101F00000E94611560932B0270932C0280932D0226
:101F100090932E020E943501182F0E9435012796BA
:101F20001FAF279726961FAE269727960EAD1FAD9B
:101F30002797802B912BBC01990F880B990B0E943E
:101F40002A1420E030E040E858E30E9489142091F0
:101F50002702309128024091290250912A020E94C2
:101F6000611560932302709324028093250290935D
:101F700026020E943501182F0E94350129961FAFB5
:101F8000299728961FAE28972996EEACFFAC299783
:101F90008E299F29BC01990F880B990B0E942A1446
:101FA00020E030E040E858E30E94891420911F02AD
:101FB0003091200240912102509122020E9461152D
:101FC00060931B0270931C0280931D0290931E026B
:101FD0000E9435010E9435010E943501182F0E9490
:101FE00035012B961FAF2B972A961FAE2A972B965B
:101FF0000EAD1FAD2B97802B912BBC01990F880B39
:10200000990B0E942A1420E030E043E053E40E9440
:102010001D162BED3FE049E450E40E94891420E0B6
:1020200030E044E353E40E941D16209113023091E6
:10203000140240911502509116020E94611560939E
:102040000F027093100280931102909312020E946B
:102050003501182F0E9435012D961FAF2D972C9614
:102060001FAE2C972D96EEACFFAC2D978E299F2995
:10207000BC01990F880B990B0E942A1420E030E0D4
:1020800043E053E40E941D162BED3FE049E450E489
:102090000E94891420E030E044E353E40E941D16BE
:1020A00020910B0230910C0240910D0250910E02D2
:1020B0000E946115609307027093080280930902E1
:1020C00090930A020E943501182F0E9435012F9625
:1020D0001FAF2F972E961FAE2E972F960EAD1FADCA
:1020E0002F97802B912BBC01990F880B990B0E9485
:1020F0002A1420E030E043E053E40E941D162BED4B
:102100003FE049E450E40E94891420E030E044E3D9
:1021100053E40E941D162091030230910402409165
:102120000502509106020E9461156093FF017093B1
:10213000000280930102909302024090FB015090B4
:10214000FC016090FD017090FE01C301B2010E948C
:10215000BC176FA778AB89AB9AABE0900702F09001
:1021600008020091090210910A02EBAAFCAA0DAB29
:102170001EABA80197010E94891463966CAF7DAFD6
:102180008EAF9FAF6397C090F701D090F801E090B9
:10219000F901F090FA01C701B6010E940E184B0137
:1021A0005C01C301B2010E9418166FAB78AF89AF12
:1021B0009AAF0091FF01109100022091010230912D
:1021C00002020BAF1CAF2DAF3EAFA90198010E94D8
:1021D000891467966CAF7DAF8EAF9FAF6797C701CD
:1021E000B6010E94181623966CAF7DAF8EAF9FAFDD
:1021F0002397A501940163966CAD7DAD8EAD9FAD27
:1022000063970E94891420910F023091100240912F
:102210001102509112020E9462156F966CAF7DAF51
:102220008EAF9FAF6F9767962CAD3DAD4EAD5FAD56
:102230006797C501B4010E9489149B01AC016F9698
:102240006CAD7DAD8EAD9FAD6F970E9462152FE690
:1022500032E143E85BE30E948914A30192010E94EA
:1022600062152B013C012FA938AD49AD5AAD6BA9C0
:102270007CA98DA99EA90E9489144B015C012BADFC
:102280003CAD4DAD5EAD6FA578A989A99AA90E9414
:1022900089149B01AC01C501B4010E9461152FE6B0
:1022A00032E143E85BE30E948914A70196010E9492
:1022B00062154B015C0123962CAD3DAD4EAD5FAD7B
:1022C000239763966CAD7DAD8EAD9FAD63970E94F5
:1022D0001D166B017C0123962CAD3DAD4EAD5FAD5F
:1022E000239767966CAD7DAD8EAD9FAD67970E94CD
:1022F0001D169B01AC01C701B6010E9462152FE6B5
:1023000032E143E85BE30E9489142091F3013091AC
:10231000F4014091F5015091F6010E9462156FA7FA
:1023200078AB89AB9AAB20911B0230911C02409193
:102330001D0250911E02609123027091240280912F
:102340002502909126020E941D160E94E9156BAB92
:102350007CAB8DAB9EABC0902B02D0902C02E0905A
:102360002D02F0902E0220E030E0A901C701B60155
:102370000E945F1718160CF0DDC020E030E040E846
:102380005FE3C701B6010E945F1718160CF4DCC0AA
:10239000C701B6010E94CE156093EF017093F00162
:1023A0008093F1019093F201DBC080E090E0DC01CA
:1023B000CBCA123089F0133009F050CB69E170E0DC
:1023C00080E090E00E9428028BEC97E002C08BE254
:1023D00095E70197F1F742CB8BEE92EDFACF1FA66E
:1023E00018AA19AA1AAA87CBA50194010E94551907
:1023F00069017A01CC0CDD1CEE1CFF1C5ACC85E077
:102400000E947B01892BD9F385E00E947B01019713
:10241000D9F3F12CE12C03E710E0DD24D39485E01F
:102420000E947B01892BD9F3C8010197F1F785E060
:102430000E947B01019749F4F101EE0DFF1DD0824E
:1024400085E00E947B010197D9F3BFEFEB1AFB0AED
:10245000E8E2EE16F10419F7F101D12CC12CCC0CF5
:10246000DD1C8191813011F46894C0F8E9A4FAA4CC
:10247000EE16FF06A1F7FE013996F12CE12CEE0CC9
:10248000FF1C8191813011F46894E0F80BA51CA524
:102490000E171F07A1F7FE017196B12CA12CAA0CF3
:1024A000BB1C8191813011F46894A0F80DA51EA584
:1024B0000E171F07A1F7FE017996912C812C880C2D
:1024C000991C8191813011F4689480F8A1960EAD29
:1024D0001FADA1970E171F0791F788E491E00E94A6
:1024E000F106B501BB0C880B990B0E94C7068DE461
:1024F00091E00E94F106B401990C880B990B0E949F
:10250000C70687E391E00E94F106B601DD0C880B57
:10251000990B0E94C7068DE491E00E94F106B70175
:10252000FF0C880B990B0E94C70689E391E00E947B
:102530007606A0CC20E030E040E85FEBC701B601B2
:102540000E94231487FF24CF2BED3FE049EC5FE38B
:102550002093EF013093F0014093F1015093F20189
:10256000A30192016BA97CA98DA99EA90E94611566
:102570002DEC3CEC4CEC5DE30E948914A30192012C
:102580000E9462156093FB017093FC018093FD0132
:102590009093FE01A50194016091EF017091F0010B
:1025A0008091F1019091F2010E9461152DEC3CECBB
:1025B0004CEC5DE30E948914A50194010E94621510
:1025C0006093F7017093F8018093F9019093FA01F9
:1025D000EFA4F8A809A91AA9E092F301F092F40176
:1025E0000093F5011093F6018FE491E00E94F1064B
:1025F00020E030E044E353E46091FB017091FC0182
:102600008091FD019091FE010E9489142BED3FE025
:1026100049E450E40E941D1642E00E94F3068CE259
:102620000E94AB0320E030E044E353E46091F70103
:102630007091F8018091F9019091FA010E9489143A
:102640002BED3FE049E450E40E941D1642E00E9459
:10265000F3068CE20E94AB0320E030E044E353E455
:102660006091F3017091F4018091F5019091F60170
:102670000E9489142BED3FE049E450E40E941D16AE
:1026800042E00E94F3068CE20E94AB0360912B02B1
:1026900070912C0280912D0290912E0242E00E94B6
:1026A000F3068CE20E94AB03609123027091240236
:1026B000809125029091260242E00E94F3068CE26E
:1026C0000E94AB0360911B0270911C0280911D025D
:1026D00090911E0242E00E94F30689E391E00E947D
:1026E00076060E94030269962EAD3FAD699720568B
:1026F000304FC901861B970B8230910538F0880F47
:10270000991F880F991F05970197F1F78AEB92E0BF
:102710000E949F028497D1F766E070E089EE91E015
:102720000E94B3028091EB01873409F07CC0809154
:10273000EC01873409F077C08091ED01813409F014
:1027400072C06BE070E08EED91E00E94B3026AE02F
:1027500070E084ED91E00E94B30262E070E082EDEF
:1027600091E00E94B3026BE070E087EC91E00E9480
:10277000B30262E070E085EC91E00E94B30262E097
:1027800070E083EC91E00E94B30263E070E080ECC3
:1027900091E00E94B30264E070E08CEB91E00E9453
:1027A000B30267E070E085EB91E00E94B302109203
:1027B000EE011092E8011092DD011092D301109207
:1027C000D1011092C6011092C4011092C201109260
:1027D000BF011092BB0184E591E00E94F10687E3FE
:1027E00091E00E94F10689EE91E00E94F10687E3F4
:1027F00091E00E94F10685EB91E00E94F10687E3EB
:1028000091E00E94F10687EC91E00E94F10687E3D7
:1028100091E00E94F10684ED91E00E94760689E342
:1028200091E00E94760680E090E0892B11F40C94F0
:10283000880B0E942803882311F40C94810B0E94BA
:1028400000000C94810B0E94651408F481E0089547
:10285000E89409C097FB3EF490958095709561953A
:102860007F4F8F4F9F4F9923A9F0F92F96E9BB27F0
:102870009395F695879577956795B795F111F8CF6C
:10288000FAF4BB0F11F460FF1BC06F5F7F4F8F4FD7
:102890009F4F16C0882311F096E911C0772321F0CD
:1028A0009EE8872F762F05C0662371F096E8862F65
:1028B00070E060E02AF09A95660F771F881FDAF7BC
:1028C000880F9695879597F90895990F0008550FE9
:1028D000AA0BE0E8FEEF16161706E807F907C0F0A6
:1028E00012161306E407F50798F0621B730B840BAE
:1028F000950B39F40A2661F0232B242B252B21F488
:1029000008950A2609F4A140A6958FEF811D811D27
:1029100008950E949C140C940D150E94FF1438F029
:102920000E94061520F0952311F00C94F6140C94D7
:10293000FC1411240C9441150E941E1570F3959FF0
:10294000C1F3950F50E0551F629FF001729FBB27A6
:10295000F00DB11D639FAA27F00DB11DAA1F649F42
:102960006627B00DA11D661F829F2227B00DA11DF5
:10297000621F739FB00DA11D621F839FA00D611D7B
:10298000221F749F3327A00D611D231F849F600D9C
:10299000211D822F762F6A2F11249F5750409AF0C5
:1029A000F1F088234AF0EE0FFF1FBB1F661F771F51
:1029B000881F91505040A9F79E3F510580F00C941C
:1029C000F6140C9441155F3FE4F3983ED4F38695DA
:1029D00077956795B795F795E7959F5FC1F7FE2BBC
:1029E000880F911D9695879597F9089597F99F6798
:1029F00080E870E060E008959FEF80EC0895002487
:102A00000A941616170618060906089500240A9453
:102A100012161306140605060895092E0394000CD9
:102A200011F4882352F0BB0F40F4BF2B11F460FF68
:102A300004C06F5F7F4F8F4F9F4F089557FD905891
:102A4000440F551F59F05F3F71F04795880F97FB72
:102A5000991F61F09F3F79F087950895121613062C
:102A60001406551FF2CF4695F1DF08C0161617065B
:102A70001806991FF1CF8695710561050894089590
:102A8000E894BB2766277727CB0197F908950E9422
:102A90005215A59F900DB49F900DA49F800D911D80
:102AA00011240895A29FB001B39FC001A39F700D90
:102AB000811D1124911DB29F700D811D1124911D46
:102AC00008955058BB27AA270E9479150C940D151C
:102AD0000E94FF1438F00E94061520F039F49F3F41
:102AE00019F426F40C94FC140EF4E095E7FB0C9416
:102AF000F614E92F0E941E1558F3BA1762077307E0
:102B00008407950720F079F4A6F50C9440150EF48F
:102B1000E0950B2EBA2FA02D0B01B90190010C01ED
:102B2000CA01A0011124FF27591B99F0593F50F405
:102B3000503E68F11A16F040A22F232F342F44275D
:102B4000585FF3CF469537952795A795F040539555
:102B5000C9F77EF41F16BA0B620B730B840BBAF025
:102B60009150A1F0FF0FBB1F661F771F881FC2F790
:102B70000EC0BA0F621F731F841F48F487957795A4
:102B80006795B795F7959E3F08F0B0CF9395880F5E
:102B900008F09927EE0F9795879508959F939F7753
:102BA000EEE389379E0728F4E8E6F0E00E940C1770
:102BB0000CC00E94C5169058A2EA2AED3FE049ECED
:102BC0005FE30E9479150E940D150F9007FC905845
:102BD0000895DF93DD27B92FBF7740E85FE316162E
:102BE000170648075B0718F4D92F0E9464179F93B4
:102BF0008F937F936F930E940A18ECE7F0E00E9496
:102C0000E5160E940D152F913F914F915F910E9403
:102C10009C14DD2351F09058A2EA2AED3FE049ECE4
:102C20005FE3D0785D270E947915DF910C940D1534
:102C30000E942217E3950C944B170E9431160C94B6
:102C40000D150E94061558F00E94FF1440F029F45B
:102C50005F3F29F00C94F61451110C9441150C941B
:102C6000FC140E941E1568F39923B1F3552391F3C8
:102C7000951B550BBB27AA2762177307840738F0EB
:102C80009F5F5F4F220F331F441FAA1FA9F335D048
:102C90000E2E3AF0E0E832D091505040E695001CFC
:102CA000CAF72BD0FE2F29D0660F771F881FBB1FB6
:102CB000261737074807AB07B0E809F0BB0B802D94
:102CC000BF01FF2793585F4F3AF09E3F510578F0C0
:102CD0000C94F6140C9441155F3FE4F3983ED4F342
:102CE000869577956795B795F7959F5FC9F7880F94
:102CF000911D9695879597F90895E1E0660F771FE6
:102D0000881FBB1F621773078407BA0720F0621B76
:102D1000730B840BBA0BEE1F88F7E09508950E94A1
:102D200096166894B1110C94411508950E942615C9
:102D300088F09F5798F0B92F9927B751B0F0E1F07C
:102D4000660F771F881F991F1AF0BA95C9F714C02C
:102D5000B13091F00E944015B1E008950C944015F7
:102D6000672F782F8827B85F39F0B93FCCF3869565
:102D700077956795B395D9F73EF4909580957095C2
:102D800061957F4F8F4F9F4F0895DF93CF931F9390
:102D90000F938B01EC01E9EAF0E00E94E5160E9436
:102DA0000D159801AE018B01EC0160E070E080E848
:102DB0009FE30E9461150E94CA179801AE010F910E
:102DC0001F91CF91DF910C949C14DF93CF931F93AD
:102DD0000F93FF92EF92DF927B018C01689406C003
:102DE000DA2EEF010E949C14FE01E894A591259132
:102DF000359145915591A6F3EF010E947915FE0199
:102E00009701A801DA9469F7DF90EF90FF900F9196
:102E10001F91CF91DF9108959F938F937F936F932D
:102E2000FF93EF939B01AC010E948914EF91FF91F6
:102E30000E94E5162F913F914F915F910C94891458
:102E40000C94FC140E942615D8F3E894E0E0BB270C
:102E50009F57F0F02AED3FE049EC06C0EE0FBB0FA4
:102E6000661F771F881F28F0B23A6207730784072E
:102E700028F0B25A620B730B840BE3959A9572F7A4
:102E8000803830F49A95BB0F661F771F881FD2F7E2
:102E900090480C947418EF93E0FF07C0A2EA2AED63
:102EA0003FE049EC5FEB0E9479150E940D150F90F1
:102EB000039401FC9058E1EDF0E00C940C170E9493
:102EC000651408F48FEF08959B01AC0160E070E099
:102ED00080E89FE30C941D16FA01EE0FFF1F309659
:102EE00021053105A1F16115710561F48038BFE359
:102EF0009B0749F168949038810561F08038BFEFF5
:102F00009B0741F099234AF5FF3FE1053105210573
:102F100019F1E8940894E795D901AA2329F4AB2F75
:102F2000BE2FF85FD0F310C0FF5F70F4A695E0F7F6
:102F3000F73950F019F0FF3A38F49F779F930DD08E
:102F40000F9007FC9058089546F00C94FC1460E034
:102F500070E080E89FE308954FE79F775F934F937A
:102F60003F932F930E94C9182F913F914F915F91EA
:102F70000E9489140C9440189F930E9422170F906E
:102F800007FCEE5F0C944B1719F416F40C94FC1428
:102F90000C9472180E942615B8F39923C9F3B6F35E
:102FA0009F57550B87FF0E9480180024A0E640EA37
:102FB000900180585695979528F4805C660F771F8E
:102FC000881F20F026173707480730F4621B730B61
:102FD000840B202931294A2BA69517940794202584
:102FE00031254A2758F7660F771F881F20F02617CC
:102FF0003707480730F4620B730B840B200D311D2B
:10300000411DA09581F7B901842F9158880F96959D
:10301000879508959B01AC010C948914DF93D92FF7
:103020000E942217E695D7952AED3FE049E45FE339
:10303000B33A6207730784079507D7953AF0A2EA77
:1030400049EC90680E9479150E940D15EFEEF0E0B2
:103050000E940C17DD0F13F00E946417DD0F0BF4B4
:103060009058DF9108950E946514880B990B08957C
:1030700029F416F00C94F6140C9440150C94FC14DE
:103080000E942615A8F39638A0F707F80F92E89447
:103090002BE33AEA48EB5FE70E949F140F920F92EE
:1030A0000F924DB75EB70F920E941119E2E1F1E065
:1030B0000E94E5164F915F91EF91FF91E595EE1F0C
:1030C000FF1F49F0FE57E0684427EE0F441FFA95B2
:1030D000E1F74195550B0E948B180F9007FE0C9459
:1030E000641708959F3F31F0915020F487957795AC
:1030F0006795B795880F911D9695879597F90895CF
:1031000091505040660F771F881FD2F708950C9496
:10311000F6140C9472180E942615D8F39923C9F35B
:10312000940F511DA3F39150504094F059F088230F
:1031300032F0660F771F881F91505040C1F79E3FB5
:1031400051052CF7880F911D9695879597F908954D
:103150005F3FACF0983E9CF0BB27869577956795CE
:10316000B79508F4B1609395C1F7BB0F58F711F408
:1031700060FFE8CF6F5F7F4F8F4F9F4FE3CF0C947F
:10318000411516F00C9472180C94FC1468940C946D
:10319000F6140E942615A8F39923C1F3AEF3DF932A
:1031A000CF931F930F93FF92C92FDD2788232AF017
:1031B0002197660F771F881FDAF720E030E040E89C
:1031C0005FEB9FE3883920F0803E38F021968F77BF
:1031D0000E946215EAE3F1E004C00E946215E7E68E
:1031E000F1E00E94E5168B01BE01EC01FB2E6F574A
:1031F00071097595771F880B990B0E942A1428E195
:1032000032E741E35FE30E949C14AF2D9801AE01C9
:10321000FF900F911F91CF91DF910E9479150C942F
:103220000D15FA01DC01AA0FBB1F9B01AC01BF57B2
:1032300028F4222733274427507820C0B75190F430
:10324000AB2F0024469537952795011CA395D2F303
:10325000002071F0220F331F441FB395DAF30ED014
:103260000C94611561307105A0E88A07B94630F405
:103270009B01AC016627772788279078309621F04C
:1032800020833183428353830895DB018F939F937F
:103290000E944715BF91AF91A29F800D911DA39FE2
:1032A000900DB29F900D11240895A1E21A2EAA1B31
:1032B000BB1BFD010DC0AA1FBB1FEE1FFF1FA217E6
:1032C000B307E407F50720F0A21BB30BE40BF50BE3
:1032D000661F771F881F991F1A9469F7609570956C
:1032E000809590959B01AC01BD01CF010895052EFD
:1032F00097FB1EF400940E948E1957FD07D00E9480
:10330000551907FC03D04EF40C948E195095409536
:10331000309521953F4F4F4F5F4F08959095809581
:10332000709561957F4F8F4F9F4F0895B7FF0C9415
:1033300047150E944715821B930B0895EE0FFF1F40
:0C3340000590F491E02D0994F894FFCF63
:10334C000200000000005E0363029002B0031C0345
:10335C009F020E0300000000660539059A05290539
:10336C005A0222012A056E616E00696E66006F7644
:10337C006600424D503A002C000D0A006E6F207210
:10338C006573706F6E7365004448543A002E004D9F
:0A339C0050553A004750533A000024
:00000001FF
